:020000040800F2
:1000000000000220057000085570000855700008B7
:100010005570000855700008557000080000000079
:100020000000000000000000000000005570000803
:100030005570000800000000557000085D1B0008A6
:10004000557000085570000855700008557000087C
:10005000557000085570000891060008557000089A
:10006000557000085570000855700008557000085C
:10007000557000085570000855700008557000084C
:10008000557000085570000855700008557000083C
:100090005570000855700008557000086D0D000877
:1000A00055700008A91A000855700008557000081E
:1000B000557000085570000855700008557000080C
:1000C00055700008557000085570000855700008FC
:1000D00055700008557000085570000855700008EC
:1000E000A7060008557000085570000855700008F4
:1000F00055700008557000085570000855700008CC
:1001000055700008557000085570000855700008BB
:1001100055700008557000085570000855700008AB
:10012000557000085570000855700008557000089B
:10013000557000085570000855700008557000088B
:10014000557000085570000855700008557000087B
:10015000557000085570000855700008557000086B
:10016000557000085570000855700008557000085B
:100170005570000855700008557000080000000018
:080180005570000855700008DD
:1001880038B5084A084B1268084D1968AA5C1B79EB
:10019800044600F039FC20460549BDE8384000F027
:1001A800A0BB00BF2400002000000020147100083C
:1001B8001472000838B5084A084B1268084D996847
:1001C800AA5C1B79044600F01FFC20460549BDE8DF
:1001D800384000F086BB00BF24000020000000204B
:1001E80014710008147200087047234BF0B51A6C9C
:1001F80042F080521A641B6C95B003F0805301934F
:10020800019B1E4B1A6842F480421A601B6803F473
:1002180080430293029B01230B93102302240025A1
:100228000C9380270823042608A8109308940E949A
:100238000F9511971294139602F0BDFB07232146E0
:10024800039303A84FF480530693049405970795E6
:1002580002F034FD02F0CEFE094BB0FBF3F001F0E2
:1002680015FE304601F0BAFE4FF0FF3029462A4607
:1002780001F0AEFD15B0F0BD00380240007000403E
:1002880040420F0030B5002341FA03F2D20707D5E8
:1002980004685A00032505FA02F224EA0202026001
:1002A8000133102BF0D130BD30B5002341FA03F2F1
:1002B800D4070AD505685A000324944025EA0404A3
:1002C800012505FA02F2224302600133102BEDD119
:1002D80030BD002814BF4FF400414FF48051012273
:1002E800014802F047BA00BF00100240002814BFBE
:1002F8004FF400414FF480510022014802F03ABA0D
:1003080000100240002814BF4FF400414FF4805100
:10031800014802F033BA00BF0010024010B510487F
:1003280001F030F80E4800F004FFA0F2CF40012899
:1003380015D800210B4C0C480A4600F086FA0A48EA
:10034800217B00F09AFA08480021012200F07DFA8A
:100358000548617B00F091FA4FF0FF33236110BD2F
:100368008408002000000020D806002010B510489E
:1003780001F065F80E4800F0DCFEA0F2CF4001283D
:1003880014D800210B4C0C480A4600F05EFA0A48C3
:10039800217D00F072FA08480021012200F055FA88
:1003A8000548617D00F069FA0123236110BD00BF93
:1003B8008408002000000020D8060020014800F032
:1003C80085BF00BF84080020014800F05CBF00BF63
:1003D8008408002010B5174C174801220321227108
:1003E80000F033FA154B9A894AB922689968144B78
:1003F80011489A5C134B1B7900F006FB03E00E488A
:10040800114900F06EFA63790B48D3F101034FF0FC
:10041800010138BF00230A46637100F016FA6179BA
:10042800054800290CBF0321022100F026FA002309
:10043800237110BD24000020D8060020DC03002012
:1004480014710008000000200C7200082DE9F0412A
:1004580072B6634D2B79012B00F0C0800023AB717D
:1004680062B6604800F065FE07465E4801F0F4F8A1
:1004780000287ADA5B4800F05CFE7A2804D15948F3
:1004880000F053FE28607EE0792805D1554800F039
:100498004CFE554B586076E040F2CF43984230D13D
:1004A800514E5048B46900F040FE844234461ED193
:1004B800306906F005F9F16906F056F931684B4ED6
:1004C80006F04AF83146804606F00AFB10B9C4F82F
:1004D800008000E02660464E2068314606F0E2FAC9
:1004E80008B1414B1E603F4800F085FE41E03D48A1
:1004F80000F01BFE3F4BB06103EB8000C368F36163
:1005080037E0B0F59A6F61D1374E3648B46900F0DC
:100518000CFE844234461ED1306906F0D1F8F169E8
:1005280006F022F9B168314E06F016F831468046D9
:1005380006F0D6FA10B9C4F8088000E0A6602C4E80
:10054800A068314606F0AEFA08B1274B9E602548F0
:1005580000F051FE14E0234800F0E7FD254BB061A0
:1005680003EB8000C368F3610AE040F2CF4398428E
:1005780003D140F2CF439F4204E0B0F59A6F25D1F2
:10058800B7F59A6F03D10023AB71BDE8F081164C23
:10059800194800210A4600F058F91748217D00F053
:1005A8006CF901221448002100F04FF91248617DCE
:1005B80000F063F901230B48236100F0B6FD0D4BF1
:1005C800A06103EB8000C368E361DCE70B28DAD1A4
:1005D8000123AB71BDE8F041FFF7FCBEBDE8F08137
:1005E8002400002084080020000000200000FA42B7
:1005F80000005CC214710008D8060020012808B564
:1006080003D1BDE80840FFF721BFB0F5806F04D1E2
:100618000748BDE8084000F031BEB0F5807FF0D053
:100628000020FFF76FFE0120BDE80840FFF76ABE13
:1006380084080020014B01221A7170472400002011
:10064800014B00221A7170472400002010B9064897
:10065800012104E0012804D104484FF4806102F02C
:1006680083B80020704700BF00100240000002401D
:1006780010B50446034801F021FB2046BDE81040B0
:10068800FFF7E4BF400D030008B50020FFF7F0FFB7
:1006980020B10120BDE8084002F08AB808BD08B5BD
:1006A8000120FFF7E5FF28B14FF48060BDE808405E
:1006B80002F07EB808BD00BF1E4B1F481A6B70B50C
:1006C80042F008021A631A6B92B002F00802009214
:1006D800009A1A6B42F004021A631A6B02F00402C1
:1006E8000192019A1A6B42F002021A631B6B03F023
:1006F8000203002401250293802603A9029B039686
:1007080004950594069401F0B7FE08A90B480896CD
:1007180009950A940B9401F0AFFE4FF4D8430848AA
:100728000D930DA90E950F94109401F0A5FE12B02B
:1007380070BD00BF003802400004024000080240BB
:10074800000C024010B504460022A188006A02F09D
:1007580011F84FF47A7001F0B1FAA188206A0122E9
:1007680002F008F84FF47A7001F0A8FA206AA1881C
:10077800002201F0FFFF4FF47A70BDE8104001F04D
:100788009DBA70B505460E46002405EB840105EBBD
:10079800440346FA04F2486BD98902F00102013495
:1007A80001F0E8FF042CF0D12846BDE87040FFF7BF
:1007B800C9BF38B504460D468069218801F0DAFFC3
:1007C8006188FF2903D0E069002201F0D3FF2046A9
:1007D8002909FFF7D6FF20462946BDE83840FFF72C
:1007E800D0BF38B500220D460446FFF7E2FF6B1E66
:1007F800DBB2012B9CBF002384F84730690744BF54
:10080800002384F849306A0644BF002384F848303E
:100818002B0605D50123803D84F8483084F84750DD
:1008280038BD08B50121FFF7DCFF4FF4C860BDE80B
:10083800084001F043BA08B50221FFF7D2FF4FF490
:10084800FA60BDE8084001F039BA82B000234FF0E1
:10085800400C8DE8081002AB03EB820252F8083C0A
:10086800194461F07F01C9B202B0FFF7BABF18217D
:10087800FFF7B7BF1C21FFF7B4BF10B5044601222C
:10088800FFF797FF94F848304BB194F8492094F853
:1008980047300AB9013300E0013B84F8473010BD06
:1008A80038B504460D463021FFF7E7FF782120468A
:1008B800FFF7E3FF2B09092B86BF5733D9B203F1A2
:1008C80030012046FFF7D9FF05F00F01092988BF3D
:1008D800573120468CBFC9B23031BDE83840FFF7E8
:1008E800CCBF38B505464C1E14F8011F19B128466F
:1008F800FFF7C3FFF8E738BD30B5054689B029B919
:10090800302109B0BDE83040FFF7B7BF00240A2204
:10091800013400A8B1FBF2F3204402FB131100F8E4
:10092800011C1946002BF2D1013C28461DF8041081
:10093800092994BF30313731C9B2FFF79EFF002C27
:10094800F2D109B030BD0B0644BF4942C9B2FFF726
:10095800D3BF2DE9F8439DF82080064691461F46EF
:100968001046194600220023B8F1010F28BF4FF0A6
:10097800010805F02BFD28B130462D21FFF77DFF3A
:1009880007F100471E4B00210022414509D21046BD
:10099800194600221B4B05F0D1FB0B4602460121EC
:1009A800F3E73946484605F0EDF80D46044605F0EC
:1009B8005DFD074605F022FA02460B462046294609
:1009C80005F0DEF804460D4630463946FFF794FF39
:1009D800B8F1000F11D030462E21FFF74EFF094B1A
:1009E80020462946002205F07FFA05F017FD01464A
:1009F8003046BDE8F843FFF77FBFBDE8F88300BF86
:100A08000000E03F000024404B2A73B50546144619
:100A180008461E4612D002D8462A05D017E0662A94
:100A280002D06B2A0AD012E005F00AFA20A3D3E913
:100A3800002305F059FA0022214B04E005F000FAE2
:100A48001DA3D3E9002305F09DF805F02FFD05F05F
:100A5800F7F9012E28BF012602460B4628460096C4
:100A6800FFF777FF28462021FFF707FF4B2C15D00B
:100A780002D8462C0BD003E0662C08D06B2C0DD086
:100A88002846B221FFF7F9FE2846432108E0284608
:100A9800B221FFF7F2FE2846462101E028464B2105
:100AA80002B0BDE87040FFF7E8BE00BFAFF30080BA
:100AB800CDCCCCCCCCCCFC3F666666666612714069
:100AC8000000404001F00701C90070B541F0400145
:100AD80005461646FFF785FE0024315D2846013499
:100AE800FFF7CBFE082CF8D195F84710284641F0BF
:100AF8008001BDE87040FFF774BE2DE9F04104465F
:100B08008EB04CF2503001F0D9F8A069218800224B
:100B180001F030FEA188206A002201F02BFE6188D6
:100B2800FF2903D0E069002201F024FE20460321BA
:100B3800FFF727FE41F2883001F0C0F82046032174
:100B4800FFF71FFE41F2883001F0B8F82046032174
:100B5800FFF717FE4FF47A7001F0B0F82046022133
:100B6800FFF70FFE94F84410334D2046042641F059
:100B78002001FFF736FE20460C2184F84560FFF778
:100B880030FE4FF0010820460227FFF74AFE2046B4
:100B980084F8488084F846700621FFF722FE28680A
:100BA80069686B4603C36A4620460021FFF78AFF3F
:100BB8002A4602AB52F8080F516802AA03C320461E
:100BC8004146FFF77FFF2A4604AB52F8100F5168E1
:100BD80004AA03C320463946FFF774FF2A4606AB2A
:100BE80052F8180F516806AA03C320460321FFF7DD
:100BF80069FF2A4608AB52F8200F516808AA03C3B8
:100C080020463146FFF75EFF2A460AAB52F8280F06
:100C180051680AAA03C320460521FFF753FF55F878
:100C2800300F69680CAB03C30CAA20460621FFF7F6
:100C380049FF0EB0BDE8F0812C7100084FF48062C6
:100C48000280FF2242804FF4006282808022C281AB
:100C580002824FF4005242824FF480420749828256
:100C6800074A416382610262A1F58061C26302643E
:100C78000822816380F84420FFF73FBF0008024044
:100C8800000C0240AFF30080284B29481A6BF0B5DE
:100C980042F010021A631A6B93B002F0100200922D
:100CA800009A1A6B42F004021A631A6B02F00402EB
:100CB8000192019A1A6B42F001021A631B6B03F04E
:100CC80001030024012502934FF48076032703A92A
:100CD800029B049503960594069701F0CDFB4FF40B
:100CE800007308A91348089309950A940B9701F013
:100CF800C3FB0E95104D0F94802328460DA90D9324
:100D0800109401F0B9FB0D4B0D9628460DA90E93D2
:100D18000F9401F0B1FB02212246172001F058F888
:100D2800172001F087F813B0F0BD00BF003802406B
:100D3800000002400008024000100240000031108C
:100D480002484FF4807101F00FBD00BF001002404F
:100D580008B5034800F0B2FFBDE80840FFF7F0BF50
:100D6800400D030008B5FFF7F3FF28B14FF480707A
:100D7800BDE8084001F01CBD08BD10B504468069F7
:100D88002189FFF77FFA0A2000F098FFA0692189DE
:100D9800BDE8104001F0E8BC10B50446C06961899F
:100DA800FFF782FAE06961890122BDE8104001F08D
:100DB800E1BC10B5044600226189C06901F0DAFC83
:100DC800E0696189BDE81040FFF76EBA10B50446C6
:100DD80080692189FFF768FAA06921890122BDE8A5
:100DE800104001F0C7BC10B5044600222189806973
:100DF80001F0C0FCA0692189BDE81040FFF754BA92
:100E0800322000F05BBF10B50446FFF7DFFF204635
:100E1800FFF7C2FFFFF7F4FF2046FFF7E4FFFFF7F5
:100E2800EFFF2046FFF7C5FFFFF7EAFF014B01225E
:100E38001A7010BD3000002010B50446FFF7ACFF53
:100E4800FFF7DEFF2046FFF7C1FFFFF7D9FF024B90
:100E580000221A7010BD00BF3000002038B50446CB
:100E68000D4611B9FFF7BFFF01E0FFF7AFFF2046BE
:100E7800FFF792FFFFF7C4FF2046FFF79AFFFFF73F
:100E8800BFFF15B12046FFF7AEFFBDE83840FFF7BA
:100E9800B7BF38B50446FFF799FF2046FFF77CFF38
:100EA800FFF7AEFF2046FFF768FF05462046FFF72D
:100EB80080FFFFF7A5FF284638BDF8B5044617465A
:100EC8001D4609B1FFF79FFF0826E9092046013EA4
:100ED800FFF7C4FF6D0016F0FF06EDB2F5D120460E
:100EE800FFF7D7FF054617B12046FFF7A5FF2846AD
:100EF800F8BD70B503785B000E4615460121002247
:100F080003F0FE030446FFF7D8FF014680B90A46FE
:100F180020463346FFF7D1FF014658B92046012243
:100F28002B46FFF7CAFF00280CBF4D20332070BDA9
:100F3800312070BD322070BD38B50446002261886A
:100F4800C06801F017FC022000F0B8FE6188E06874
:100F5800012201F00FFC40F24C4000F0AFFE237874
:100F680001215B000A4603F0FE032046FFF7A5FFB8
:100F78000F210546F8222046FFF7BBFF281C18BFA3
:100F8800012038BD40220270802242804FF48072D6
:100F980082804281084A4FF48061C26002614261E6
:100FA800A2F50062C18082614FF40071A2F500626F
:100FB8000181C261FFF7C0BF001002402DE9F04176
:100FC800054688461746082600242846FFF761FF8D
:100FD800013E40EA440016F0FF06C4B2F5D12846A7
:100FE8004146FFF73BFF17B12846FFF725FFFFF7FC
:100FF80007FF2046BDE8F08110B503785B0043F099
:10100800010301210022DBB20446FFF756FF30B985
:10101800012120460A46BDE81040FFF7CFBF322025
:1010280010BD38B503785B000D460022012103F09E
:10103800FE030446FFF741FF0146B8B90A462046B9
:101048002B46FFF73AFF024690B923785B0043F03E
:10105800010320460121DBB2FFF72FFF50B9012120
:1010680020460A46BDE83840FFF7A8BF312038BD02
:10107800322038BD332038BD70B510210446FFF743
:10108800D0FF112106462046FFF7CBFF06F1660385
:10109800DBB2332B05461C4C06D8637833B90123E1
:1010A8006370FFF73BF901E000236370333EF6B24B
:1010B800652E07D8A3783BB9134B01229A70FFF726
:1010C80055F901E00023A37005F16603DBB2332B69
:1010D80007D8E3783BB90C4B0122DA70FFF76EF9B9
:1010E80001E00023E370333DEDB2652D08D8237984
:1010F80043B9054B01221A71BDE87040FFF764B986
:101108000023237170BD00BF300000200123C1609F
:10111800816080E80C00704743681E2B04DC00EBFC
:1011280083020133D160436070478368D3F8B40009
:101138007047836818687047C3680E2B30B513DC96
:10114800002B03F104020ADD90F8B0403CB95C1EA4
:1011580000EB8404256940F82250216101E040F841
:1011680022100133C360086030BD21EAE171012318
:1011780080F8B130C0F8B41081607047D0F8B4304E
:10118800043350F823007047C368033350F8230032
:10119800431A58425841704732B9C0F8A43080F811
:1011A800AC1080F8AE207047C0F8A83080F8AD10B9
:1011B80080F8AF20704738B5D0F8A43004460D4603
:1011C80053B1084694F8AE2094F8AC10FFF73DFBF5
:1011D800D4F8A43028469847D4F8A83053B1284604
:1011E80094F8AD1094F8AF20FFF72FFBD4F8A8308F
:1011F8002846984738BD034680681968FFF7DBBF63
:1012080038B504460D46627A0846217AFFF71DFB79
:101218002846F621FFF731FB2846217A627ABDE895
:101228003840FFF712BB10B503460C4608465A7AF9
:10123800197AFFF70AFB20462021BDE81040FFF786
:101248001CBB38B5C368012B04460D4615D083680E
:10125800043350F82300FFF7E6FFA368E268013380
:1012680093FBF2F102FB1133A3600433294654F8CF
:101278002300BDE83840FFF7C3BF38BD0346806888
:101288001968FFF7DEBF034680681968FFF7D9BF02
:1012980038B5C368012B04460D4616D0836804335D
:1012A80050F82300FFF7BFFFA268E368013A1A4429
:1012B80092FBF3F103FB1123A3600433294654F88E
:1012C8002300BDE83840FFF79BBF38BD0346806860
:1012D8001968FFF7DDBF2DE9F84FC368012B0446F5
:1012E80089464DD08368043350F82300FFF79BFFED
:1012F800A668E368721C92FBF3F103FB1122311D0F
:10130800104654F821A09AF809804FF48071474696
:101318004FF0000C9C4529DA474502F104050DD130
:1013280054F825506D7A454505D0013A1A4492FB88
:10133800F3F703FB17220CF1010C10E054F825B069
:101348009BF80950BD4212D19AF808709BF808B072
:10135800CBEB07077F438F42BCBF394610460132AB
:1013680092FBF3F703FB17222F46D3E73046A06022
:101378000430494654F82000BDE8F84FFFF740BF55
:10138800BDE8F88F034680681968FFF7A4BF2DE908
:10139800F84FC368012B044689464ED0836804334E
:1013A80050F82300FFF73FFFA668E368721E1A444F
:1013B80092FBF3F103FB1122311D104654F821A0D2
:1013C8009AF809804FF4807147464FF0000C9C450D
:1013D80029DA474502F104050CD154F825506D7AF5
:1013E800454504D0013292FBF3F703FB17220CF1B9
:1013F800010C10E054F825B09BF80950BD4213D1F8
:101408009AF808709BF808B0CBEB07077F438F4228
:10141800BCBF39461046013A1A4492FBF3F703FB66
:1014280017222F46D3E73046A0600430494654F8C7
:101438002000BDE8F84FFFF7E3BEBDE8F88F03468C
:1014480080681968FFF7A3BF4068704710B509B1F5
:10145800002301E0817210BDCA5CC418A2720AB1EF
:101468000133F9E710BD09B96C3000E08830114646
:10147800FFF7ECBF10B54160027202994372BDE8F4
:101488001040FFF7E3BF73B580E80600002104466B
:101498001D46816063180431002040291861F9D184
:1014A800ADB9C4238DF804300E2304F1500684F836
:1014B80058300123304601A9626584F859308DF807
:1014C8000550FFF7C3FF20463146FFF735FE0023DE
:1014D80084F8B05084F8763084F89230C4F8A83094
:1014E800C4F8A43084F8B130C4F8B43002B070BD88
:1014F80010B5013932B9026780F8741080F8752088
:101508006C3007E00024C0F88C4080F8901080F818
:10151800912088301946BDE81040FFF797BF08B5FD
:1015280018B10A3005F0C2FDC0B208BD38B50D4685
:10153800017A04460131C9B22846627AFFF785F973
:10154800236893F8B11001290CD1D3F8B4200432E0
:10155800284653F822309C4208BF0021BDE8384095
:10156800FFF78BB938BD70B590F8B130C268012B60
:1015780004460E46836802D1501E83420ED1191DBF
:10158800013A54F821109342486817D194F8B030C2
:10159800012B13D0D4F8B430A36070BDD4F8B45084
:1015A800C4F8B4300433043554F82300FFF7BEFF01
:1015B80054F825003146FFF7B9FF002070BD38B553
:1015C8000D46017A04460131627A2846C9B2FFF70E
:1015D8003CF92368DA68033253F822309C4206D17A
:1015E800284604F10A01BDE83840FFF77AB92046D9
:1015F8002946FFF79BFFF3E770B500F16C06044638
:1016080030460D46FFF78BFF18B130462946FFF7E5
:10161800D6FF04F188063046FFF781FF18B130463F
:101628002946FFF7CCFF20462946FFF7C4FD0026D0
:10163800E3689E4207DA04EB860329461869FFF738
:10164800BEFF0136F4E7A3680433294654F82300A3
:10165800BDE87040FFF7D4BD10B504468068216826
:10166800FFF781FF50B1A0602068FFF7DAF8A068A3
:101678002168FFF7C1FFA368186810BD4FF0FF305D
:1016880010BD10B504460068FFF7CBF8A0682168C4
:10169800BDE81040FFF7B0BF7FB50C4B0C481A6B84
:1016A80042F004021A631B6B03F004030093009BCF
:1016B8004FF40053019301A9012302930393049368
:1016C80000F0DAFE07B05DF804FB00BF0038024006
:1016D800000802404FF400530380034B436000238B
:1016E80083600023838170470008024038B50446B0
:1016F80072B621884068FEF7C5FD6068218801221E
:1017080001F038F862B640F2EE25013DADB2002D89
:1017180033D0142000F0D2FA6068218801F024F850
:101728000028F2D072B600226068218801F022F801
:1017380060682188FEF7B8FD62B64FF4167000F0B5
:10174800BDFA72B660682188FEF79CFD6068218842
:10175800012201F00FF862B6502000F0AFFA72B61D
:101768006068218801F000F8D0F1010538BF002534
:1017780062B64FF4D27000F0A1FA284638BDCB0704
:1017880010B5044616D572B600222188406800F0CC
:10179800F1FF60682188FEF787FD62B60A2000F035
:1017A8008DFA72B601226068218800F0E3FF62B604
:1017B800372015E072B600222188406800F0DAFF71
:1017C80060682188FEF770FD62B6412000F076FA65
:1017D80072B601226068218800F0CCFF62B605204D
:1017E800BDE8104000F06ABA70B506460C460925F7
:1017F800013D15F0FF0506D004F001013046FFF762
:10180800BEFF6408F4E770BDCC21FFF7EDBF4421AB
:10181800FFF7EABF10B50446FFF768FF38B1204666
:10182800FFF7F2FF2046BDE81040FFF7F0BF10BDFC
:10183800BE21FFF7D9BF10B5044672B621884068AB
:10184800FEF732FD60682188002200F093FF62B63F
:10185800032000F033FA72B660682188FEF712FDA3
:1018680060682188012200F085FF62B60A2000F036
:1018780025FA72B62188606800F076FF044662B6E1
:101888004FF4167000F01AFA204610BDF8B5074656
:101898000825002401263846FFF7CDFF012808BF98
:1018A80034437600013DF6B2F5D12046F8BD30B597
:1018B80085B00446FFF71AFF002842D02046FFF7FC
:1018C800A3FF2046FFF7B4FF00252046FFF7DEFF01
:1018D80001AB58550135092DF7D19DF80530FF2B7F
:1018E80008D19DF804004042C0B204F097FA0022E3
:1018F8001C4B06E053B99DF8040004F08FFA1A4B0C
:10190800002204F0F1FA04F0D1FDA060174BA068A2
:10191800196805F0DBF818B10020FEF7F3FC01E0C8
:10192800FEF7E4FC124BA068196805F0C5F818B179
:101938000120FEF7E7FC02E00120FEF7D7FC0023B8
:1019480000E00123A3812046FFF7D0FE40B12046E6
:10195800FFF75AFF204605B0BDE83040FFF757BFF4
:1019680005B030BD0000E0BF0000E03F00000020EF
:101978000800002030B585B00446FFF7B7FE08B967
:10198800002040E02046FFF73FFF2046FFF73FFFDB
:101998001E4D2046FFF74FFF01280CD12046FFF7C8
:1019A800A5FE0028ECD02046FFF72EFF2046FFF7C3
:1019B8003FFF002505E00A2000F080F9013DE8D14D
:1019C800ECE72046FFF762FF01AB58550135092DBA
:1019D800F7D19DF80530FF2B08D19DF8040040424F
:1019E800C0B204F01BFA0022094B06E053B99DF877
:1019F800040004F013FA074B002204F075FA04F00F
:101A080055FDA060012005B030BD00BF084C0100A5
:101A18000000E0BF0000E03F1C4B1D485A6C30B589
:101A280042F400325A645A6C1A4C89B002F40032FB
:101A38000192019A1A6B42F020021A631B6B03F0A1
:101A4800200302930025029B256140F2E73384E8D6
:101A580029003F232046E360656102F019FC40231A
:101A680003930D4B0D48049303A9059500F004FD5D
:101A780001212A46192000F0ABF9192000F0DAF903
:101A8800204601F0ADFC09B030BD00BF003802406F
:101A980000440140000A00200000311000140240F8
:101AA800014802F0CBBA00BF000A0020014B1868B9
:101AB800704700BF3800002008B50648FFF7F7FE5A
:101AC800054B1B78012B03D1BDE80840FEF782BC0B
:101AD80008BD00BFDC0300202A0000200148FFF7F2
:101AE800CBBA00BFD40100200E4B1A68013210B5E2
:101AF8001A605A6801325A609A6801329A605A68C4
:101B0800B2F57A7F1C4603D3FFF7D6FF0023636044
:101B1800A368632B04D9FFF7E1FF024B00229A6008
:101B280010BD00BF380000200268034B9A4201D163
:101B3800FFF7DABF704700BF0044014008B5032033
:101B480000F034F900214FF0FF300A46BDE80840A4
:101B580000F03EB908B500F0A3F8BDE8084000F071
:101B68004ABA00000C4B1A6842F001021A600022BF
:101B78009A60196821F0847121F48031196007494D
:101B88005960196821F480211960DA60044B4FF01C
:101B980000629A60704700BF00380240103000248D
:101BA80000ED00E0174A184B916801F00C01042978
:101BB80003D0082903D0154A18E0154A16E05068E2
:101BC800516810F4800F506814BF114A0F4A01F091
:101BD8003F01B2FBF1F20B494968C1F30141C0F37F
:101BE8008810013142434900B2FBF1F21A60054AFC
:101BF80008499268C2F30312895C1A68CA401A60DD
:101C0800704700BF00380240200000200024F40084
:101C180040787D01647100087047704710B5094B22
:101C28004FF0FF3200241A621C625A625C621A6129
:101C38001C615A615C619A619C61FFF7EEFF204666
:101C480010BD00BF0038024010B5044601F0D2F9BB
:101C58004FF47A73B0FBF3F000F018F94FF0FF304F
:101C68002146002200F0B4F8002010BD08B50B4B47
:101C78001A6842F400721A601A6842F480621A60A4
:101C88001A6842F480721A60032000F08FF800206E
:101C9800FFF7DAFFFFF752FF002008BD003C0240C3
:101CA800024B1A6801321A60704700BF44000020D6
:101CB800014B1868704700BF4400002013B501901D
:101CC800FFF7F6FF0446FFF7F3FF019B001B98425E
:101CD800F9D302B010BD034B1A6822F002021A6051
:101CE800704700BF10E000E0024B1A6842F00202A1
:101CF8001A60704710E000E00048704700010401D6
:101D0800014B1868000C7047002004E0024B18686B
:101D1800C0F30B00704700BF002004E0024B5A6874
:101D280042F001025A607047002004E0024B5A68F2
:101D380022F001025A607047002004E0024B5A6802
:101D480042F002025A607047002004E0024B5A68D1
:101D580022F002025A607047002004E0024B5A68E1
:101D680042F004025A607047002004E0024B5A68AF
:101D780022F004025A607047002004E0012292FA1F
:101D8800A2F2034BB2FA82F2012143F82210704703
:101D980000042742012292FAA2F2034BB2FA82F21D
:101DA800002143F82210704700042742074AD168EF
:101DB8004FF6FF030B4043F0BF6343F4003300F0DA
:101DC800070043EA0023D360704700BF00ED00E03E
:101DD800164BDB68C3F3022370B51D1DC3F107045E
:101DE800042C28BF0424062D4FF001058CBF033BAB
:101DF800002305FA04F405FA03F6013C013E2140EC
:101E0800324001FA03F3134300284FEA031305DABB
:101E1800DAB200F00F00064B1A5470BD00F16040B2
:101E280000F56140DBB280F8003370BD00ED00E0E2
:101E380014ED00E04209012300F01F0003FA00F04E
:101E4800014B43F82200704700E100E042090123FA
:101E580000F01F0003FA00F02032024B43F8220082
:101E6800704700BF00E100E0BFF34F8F054A064B03
:101E7800D16801F4E0610B43D360BFF34F8F00BF1B
:101E8800FDE700BF00ED00E00400FA050138B0F1FD
:101E9800807F0AD2064B074A5860F02182F8231047
:101EA8000020072298601A6070470120704700BF21
:101EB80010E000E000ED00E04278114B9A600278F3
:101EC800DAB14268DA60C27A017B120642EA01722C
:101ED80001780A43817A42EAC142417B42EA81425F
:101EE800817B42EA4142C17B42EA0142417A42EAAD
:101EF8000122017A42EA410200E0DA601A61704781
:101F080090ED00E0024BD868C0F30220704700BF94
:101F180000ED00E0002870B504DA00F00F00124C64
:101F2800205C05E000F1604000F5614090F8000396
:101F380001F007010D1DC1F10704042C28BF04247A
:101F4800062D4FEA10108CBF03390021012520FA15
:101F580001F605FA04F405FA01F1013C01393440AF
:101F680008401460186070BD14ED00E042090123B8
:101F780000F01F0003FA00F04032024B43F8220041
:101F8800704700BF00E100E042094032044B53F8BB
:101F9800223000F01F0023FA00F000F00100704723
:101FA80000E100E04209012300F01F0003FA00F0FD
:101FB8006032024B43F82200704700BF00E100E0A6
:101FC80042098032044B53F8223000F01F0023FAF4
:101FD80000F000F00100704700E100E0044B1A68CF
:101FE80004280CBF42F0040222F004021A60704771
:101FF80010E000E0704708B5FFF7FCFF08BD00BF20
:102008000368DAB21821103AB2FBF1F223F47F73B5
:10201800054923F00303032A895C88BF0433036559
:102028004165006D704700BF7471000838B50446FB
:10203800002831D0022380F83530036817491A6820
:102048008068114062681043E268104322691043B7
:1020580062691043A2691043E2690243206A02439D
:102068000A43616A042903D1256BE06A28430243C5
:102078001A605A69042922F0070242EA010204BFE1
:10208800A16A0A435A612046FFF7BAFF00200123DC
:10209800E06484F8353038BD012038BD3F8010F049
:1020A80038B50546F0B190F83530022B1AD00368E0
:1020B8001A6822F0010200241A6021221C605C6068
:1020C8009C60DC601C615A61FFF79AFF6B6D3F22D0
:1020D80002FA03F38360EC6485F8344085F83540F0
:1020E800204638BD012038BD30B590F83440012C69
:1020F8004FF002041BD080F835400468012580F8B1
:102108003450256825F001052560256825F48025CB
:10211800256063608368402B0BBFA260A160E1600B
:10212800E260236843F001032360002030BD2046AD
:1021380030BD30B590F83440012C4FF0020423D064
:1021480080F835400468012580F83450256825F06A
:1021580001052560256825F480252560636083686E
:10216800402B0BBFA260A160E160E260236843F0EE
:102178001E032360636943F080036361236843F0AF
:1021880001032360002030BD204630BD38B5036808
:102198001A6822F001021A600446FFF789FD054615
:1021A80023681B6813F0010310D0FFF781FD401B63
:1021B800B0F57A7FF4D9E36C43F02003E36403209D
:1021C800002384F8343084F8350038BD012284F8BF
:1021D800343084F83520184638BD2DE9F84F0446C8
:1021E8001746056D436D884611B94FF0200901E087
:1021F8004FF0100909FA03F9FFF75AFD82462B68D8
:10220800666D19EA030F47D128683F4BDFF8FCB029
:1022180029682A684FF0080C0CFA06FCB3401CEA3F
:10222800000F0BFA06F603EA010106EA020202D1E0
:1022380041B9DAB10BE0E06C40F00100E064C5F8A8
:1022480008C021B1E16C41F00201E164AB6022B148
:10225800E36C43F00403E364AE60042384F8353090
:10226800002384F834300120BDE8F88F781CC6D0EC
:102278005FB9E36C43F02003E3640320002384F890
:10228800350084F83430BDE8F88FFFF711FDCAEB4C
:102298000000B842B3D9ECE72368B8F1000F16D1B3
:1022A800302202FA06F6AE601A68510307D51A689A
:1022B800120304D51B681B0304D5212300E0112356
:1022C80084F83530002084F83400BDE8F88F1022F7
:1022D80002FA06F6AE60186810F480200DD018686F
:1022E80010F4002009D0186810F400200AD0412307
:1022F80084F835300020BDE8F88F312384F8353074
:10230800BDE8F88FBDE8F88F010080000400800068
:1023180038B5056D436D296808229A400A4204467B
:1023280015D003681968490711D5196821F0040107
:102338001960AA60C36C43F00103C364042380F8E6
:102348003530002380F83430836C03B19847636DCF
:10235800444A29689A400A4216D0236859690806EF
:1023680012D5596921F080015961AA60E36C43F0E4
:102378000203E364042384F83530002384F83430FE
:10238800A36C0BB120469847636D374A29689A4079
:102398000A4216D023681968890712D5196821F0EE
:1023A80002011960AA60E36C43F00403E3640423A8
:1023B80084F83530002384F83430A36C0BB1204600
:1023C8009847636D296810229A400A421ED02368F4
:1023D800196808071AD51968490308D5AA601A6840
:1023E80012030CD51B6818030CD5412308E01968A3
:1023F800C90503D4196821F008011960AA603123BE
:1024080084F83530236C0BB120469847636D2968F2
:1024180020229A400A4224D023681968C80620D589
:102428001968490309D5AA601A68150301D4636CB1
:1024380014E01B68180314D50FE01968C90503D404
:10244800196821F010011960AA60E36CE364112394
:1024580084F83530002384F83430E36B0BB1204620
:10246800984738BD010080000400800090F83500CE
:102478007047C06C704700BF2DE9F7430F68002311
:1024880001229A4002EA0705954240F0CF804C6845
:1024980024F01006022E16D14FEAD30C00EB8C0C58
:1024A80003F00708DCF820204FEA88084FF00F09EE
:1024B80009FA08F922EA09090A6902FA08F849EA50
:1024C8000802CCF820205A004FF0030CD0F80090F6
:1024D8000CFA02FC6FEA0C0C04F003080CEA090978
:1024E80008FA02F8013E49EA0808012EC0F80080FF
:1024F80010D886680CEA0608CE68964048EA0606B0
:102508008660466826EA0508C4F300169E4048EA35
:1025180006064660C6680CEA060C8E6896404CEAC9
:102528000602C260E20040F18180444A566C46F4DB
:1025380080465664526C23F0030606F1804602F486
:10254800804206F59C36019203F0030C019AB268AA
:102558004FEA8C0C4FF00F0808FA0CF822EA08082A
:10256800374A904222D002F58062904220D002F58C
:10257800806290421ED002F5806290421CD002F523
:10258800806290421AD002F58062904218D002F51B
:102598008062904216D002F58062904214D002F513
:1025A8008062904214BF092208220EE000220CE04B
:1025B80001220AE0022208E0032206E0042204E0E5
:1025C800052202E0062200E0072202FA0CF242EAA3
:1025D8000802B2601B4ED6F800C0EA4314F4803FEC
:1025E80014BF45EA0C0C02EA0C0CC6F800C0766869
:1025F80014F4003F14BF45EA060C02EA060C114E1B
:10260800C6F804C0D6F808C014F4801F14BF45EA01
:102618000C0C02EA0C0CC6F808C0F668A40258BFF5
:1026280002EA0605074A48BF3543D5600133102B37
:102638007FF426AF03B0BDE8F08300BF0038024046
:1026480000000240003C01402DE9F0430023012234
:1026580002FA03F505EA0104AC4279D14FF0030C04
:1026680003FA02F506680CFA05F5ED4323FA0CF7B0
:102678002E4000EB8707066003F00708D7F8209084
:102688000F264FEA880806FA08F829EA0808C7F862
:1026980020808768DFF8CC902F4087604768E44344
:1026A80027404760C7683D40C56023F0030505F132
:1026B800804505F59C3503EA0C07D5F80880BF006E
:1026C800BE40484506EA080821D009F58069484512
:1026D8002AD0224A90421CD002F5806290421AD039
:1026E80002F58062904218D002F58062904216D0BE
:1026F80002F58062904214D002F58062904212D0B6
:1027080002F58062904214BF092208220CE00022E0
:102718000AE0022208E0624606E0042204E00522FC
:1027280002E0062200E00722BA40904510D1AA68CC
:1027380022EA06060A4AAE60156825401560556803
:1027480025405560956825409560D5682C40D46033
:102758000133102B7FF47BAFBDE8F0830008024003
:10276800003C014000000240036919420CBF0020F0
:102778000120704702B909048161704743695940D3
:102788004161704782B04FF480330193019B0B4342
:102798000193019BC361C161019BC361C36901933B
:1027A800C06980F48030C0F3004002B070477047C1
:1027B80008B5044B5969084202D05861FDF71EFF5D
:1027C80008BD00BF003C0140044B1A6A42F0805229
:1027D8001A621A6A22F080521A6270470038024060
:1027E8004FF4807393FAA3F3B3FA83F39B0003F1D6
:1027F800844303F5602301221A6070474FF4807305
:1028080093FAA3F3B3FA83F39B0003F1844303F52C
:10281800602300221A6070471A4B0268196821F079
:10282800E0010A431A6003F54C435A6822F48032E7
:102838005A601A6822F480321A609A6822F4803248
:102848009A60DA6822F48032DA604268D10303D5EC
:10285800196841F480311960900303D5596841F42F
:1028680080315960D10704D5074B996841F480310C
:102878009960930704D5044BDA6842F48032DA6031
:10288800704700BF00700040003C0140102393FADD
:10289800A3F3B3FA83F39B0003F1844303F56023A6
:1028A80001221A607047102393FAA3F3B3FA83F353
:1028B8009B0003F1844303F5602300221A607047EC
:1028C800024B5A6810435860704700BF00700040C0
:1028D800024B5A6822EA00005860704700700040B6
:1028E800064B1A69012922F004021A6101D130BF8E
:1028F800704740BF20BF20BF704700BF00ED00E019
:102908000B4B1A6822F0030210431860094B1A692E
:10291800012942F004021A6101D130BF02E040BF30
:1029280020BF20BF1A6922F004021A61704700BF55
:102938000070004000ED00E0054B1A6842F002020A
:102948001A60044B1A6942F004021A6130BF7047DA
:102958000070004000ED00E0704710B5044C63695A
:10296800D80304D5FFF7F8FF4FF48033636110BD37
:10297800003C0140024B1A6942F002021A6170479A
:1029880000ED00E0024B1A6922F002021A6170475A
:1029980000ED00E0024B1A6942F010021A6170471C
:1029A80000ED00E0024B1A6922F010021A6170472C
:1029B80000ED00E070470368F7B50446D80703D474
:1029C800236899074DD48FE0854B9A6802F00C0272
:1029D800042A07D09A6802F00C02082A0BD15B6817
:1029E8005A0208D57E4B1B689B03E9D56368002B08
:1029F800E6D101205BE17B4B00221A70FFF758F902
:102A08000546774B1B689F0308D5FFF751F941F23C
:102A18008833401B9842F4D9032048E1714B22794E
:102A28001A70636873B1FFF743F905466C4B1B686E
:102A38009E03C5D4FFF73CF941F28833401B984206
:102A4800F4D9E9E7FFF734F90546654B1B689803A5
:102A5800B6D5FFF72DF941F28833401B9842F4D9D7
:102A6800DAE75F4B9A6812F00C0F07D09A6802F009
:102A78000C02082A0AD15B68590207D4584B1A6815
:102A8800920715D5E268012AB3D111E0E268564BE6
:102A9800E2B101221A60FFF70BF90546504B1A689C
:102AA800970705D4FFF704F9401B6428F6D9B3E764
:102AB8001A68F82191FAA1F12369B1FA81F122F09B
:102AC800F8028B401343464A13600DE01A60FFF783
:102AD800EFF80546424B1B689E0705D5FFF7E8F857
:102AE800401B6428F6D997E723681D0703D4236899
:102AF80058074CD51FE062693C4B72B101221A603D
:102B0800FFF7D6F80546364B5B6F9907EFD4FFF70A
:102B1800CFF8401B6428F6D97EE71A60FFF7C8F89B
:102B280005462F4B5B6F9A07E1D5FFF7C1F8401BAD
:102B38006428F6D970E72A4B1A6C42F080521A645E
:102B48001B6C03F080530193019B294B1A6842F4D4
:102B580080721A60FFF7ACF80546254B1B68DB0549
:102B680018D5244B00221A70FFF7A2F805461C4B13
:102B78001B6F9F0714D41F4B227A1A70A368FBB1EE
:102B8800FFF796F80546164B1B6F9E0710D5A369ED
:102B980093BB71E0FFF78CF8401B6428DDD93BE755
:102BA800FFF786F841F28833401B9842DFD933E7B4
:102BB800FFF77EF841F28833401B9842E3D92BE7B0
:102BC800FFF776F80546064B1B6F9807DFD5FFF72A
:102BD8006FF841F28833401B9842F4D91CE700BFD4
:102BE800003802400238024000004742800E474247
:102BF80000700040703802402E4A926802F00C02C1
:102C0800082A3FF4F6AE022B2B4B4FF000021A6055
:102C180040D1FFF74DF80546264B1B6899012DD486
:102C280047F6C07797FAA7F74FF44036B7FA87F711
:102C380096FAA6F64FF07065B6FA86F695FAA5F5F7
:102C4800A36A206AE169626AE46A5B080143BA40E0
:102C5800013B0A43B340B5FA85F51A43AC40154B1E
:102C680022435A60144B01221A60FFF721F80446E8
:102C7800104B1B689A0107D5002018E0FFF718F8D9
:102C8800401B6428C8D9C7E6FFF712F8001B642860
:102C9800EED9C1E6FFF70CF80446064B1B689B010A
:102CA800EAD5FFF705F8001B6428F6D9B4E603B0A7
:102CB800F0BD00BF00380240600047427E4B1A68F2
:102CC80002F00F02914270B504460D4677D9CAB298
:102CD8001A701B6803F00F038B4201D0012070BDEE
:102CE80003689D0706D5754AA168906820F0F00032
:102CF80001439160D8070BD42368590740F1CC8071
:102D08006E4AE168906820F4E05001439160C3E0A6
:102D180063686A4A012B03D1126812F4003F08E085
:102D2800991E0129126802D812F0007F01E012F002
:102D3800020FD3D0614A916821F003010B439360DD
:102D4800FEF7B6FF6368012B05460ED15B4B9B6807
:102D580003F00C03042BCFD0FEF7AAFF41F288330F
:102D6800401B9842F2D9032070BD022B0DD1534B62
:102D78009B6803F00C03082BBED0FEF799FF41F2C5
:102D88008833401B9842F2D9EDE7032B05D04B4B13
:102D98009B6813F00C0F0AD1AEE7484B9B68FEF70F
:102DA80087FF41F28833401B9842F6D9DBE7FEF7EC
:102DB8007FFF41F28833401B9842E8D9D3E7036884
:102DC8009A0706D53D4AA168906820F0F0000143B3
:102DD8009160DE0709D4384BEAB21A701B6803F019
:102DE8000F03AB427FF47AAF86E76368334A012B5F
:102DF80003D1126812F4003F08E0991E01291268F5
:102E080002D812F0007F01E012F0020F3FF466AF23
:102E18002A4A916821F003010B439360FEF748FFAB
:102E28006368012B06460DD1244B9B6803F00C0305
:102E3800042BD0D0FEF73CFF41F28833801B984228
:102E4800F2D990E7022B0DD11C4B9B6803F00C03C1
:102E5800082BC0D0FEF72CFF41F28833801B984224
:102E6800F2D980E7032B05D0144B9B6813F00C0FA5
:102E78000AD1B0E7114B9B68FEF71AFF41F288337D
:102E8800801B9842F6D96EE7FEF712FF41F28833AD
:102E9800801B9842E8D966E71D0707D5074B2169CB
:102EA8009A6822F4604242EAC1029A600020FEF762
:102EB800CBFE002070BD00BF003C0240003802403D
:102EC80070B5204C88B00D461646236BD0B943F038
:102ED80001032363236B059003F001030193019B16
:102EE80007904FF480730393022304931648032337
:102EF80003A90693FFF7C0FAA36823F0EC631E4307
:102F080035431BE043F004032363236B0F4803F0AE
:102F180004030293029B4FF4007303930223049368
:102F28000323069303A9002305930793FFF7A4FA45
:102F3800A36845EAC60523F078431D43A56008B099
:102F480070BD00BF00380240000002400008024087
:102F5800014B01221A6070474C004742014B002286
:102F68001A6070474C0047421F4B9A6802F00C02E7
:102F7800042A10B536D0082A01D01C4810BD59685B
:102F88005A685C6812F4800F01F03F0147F6C0727E
:102F98000CD092FAA2F2B2FA82F347F6C07222403B
:102FA800DA40134BB3FBF1F353430BE092FAA2F26E
:102FB80047F6C0730D48B2FA82F22340D340B0FB03
:102FC800F1F14B43084A50684FF4403292FAA2F2AA
:102FD800B2FA82F200F44030D04001304000B3FB36
:102FE800F0F010BD024810BD003802400024F40083
:102FF80040787D0108B5FFF7B7FF084BF0229B68C2
:1030080092FAA2F2B2FA82F203F0F003D340044A31
:10301800D35CD840034B186008BD00BF003802409D
:103028007C7100082000002008B5FFF7E3FF074B7C
:103038004FF4E0529B6892FAA2F2B2FA82F203F4D9
:10304800E053D340024AD35CD84008BD0038024060
:103058007C71000808B5FFF7CDFF074B4FF46042BD
:103068009B6892FAA2F2B2FA82F203F46043D34068
:10307800024AD35CD84008BD003802407C71000881
:103088000F230360324B1A68520301D5052204E06E
:103098001A6812F4803218BF012242601B6813F0CC
:1030A800010318BF0123C360294BF8221B6892FA59
:1030B800A2F2B2FA82F203F0F803D3400361244B80
:1030C8001A6F510701D5052204E01A6F12F00102A8
:1030D80018BF012282605B6F13F0010318BF012340
:1030E80043611B4B1A68D2014CBF02220122826144
:1030F8005A6802F48002C2615A6802F03F02026212
:10310800596847F6C07292FAA2F247F6C073B2FA4B
:1031180082F20B40D34043620D4B4FF440325B6860
:1031280092FAA2F203F4403303F58033B2FA82F242
:103138005B00D3408362064B4FF070625B6892FA83
:10314800A2F2B2FA82F203F07063D340C36270470E
:10315800003802400F2303600B4B9A6802F0030209
:1031680042609A6802F0F00282609A6802F4E052C3
:10317800C2609B6803F46043DB080361034B1B6870
:1031880003F00F030B60704700380240003C024018
:10319800704708B5044BDB68190604D5FFF7F8FF3C
:1031A800024B80221A7008BD003802400E380240D7
:1031B800036A23F001030362026A436870B58669F3
:1031C8000C6826F0730626438C6822F0020222431C
:1031D8000C4CA04209D004F58064A04205D043609D
:1031E8004B6886614363026270BDCC688D6922F0CA
:1031F800080222434C6923F44073254322F0040259
:103208002B43ECE700000140036A23F48073036258
:10321800026A436830B5C5690C6825F07305254313
:103228008C6822F4007242EA04220E4CA04209D0B3
:1032380004F58064A04205D043604B68C561C36350
:10324800026230BDCC6822F4006242EA04224C6972
:1032580023F4405343EA04138C6922F4806243EA5E
:103268000413E9E700000140036A23F48053036272
:1032780030B5056A4368C2690C6822F4E64242EA3E
:1032880004248A6825F4005545EA0235094A904223
:1032980009D002F58062904205D043604B68C46152
:1032A8000364056230BD4A6923F4804343EA82130C
:1032B800F3E700BF0000014003684A68086810B5DA
:1032C8009C6824F07004144324F007042043502A17
:1032D80098601FD002D8402A10D010BD602A29D08B
:1032E800702A39D188689C68CA6824F47F440243EC
:1032F8000869224342EA00229A6010BD1A6A186AD5
:10330800096920F001001862986920F0F00040EA8D
:1033180001111FE01A6A88680C69196A21F0010115
:103328001962996922F00A0221F0F00141EA0411B8
:1033380002430FE01A6A88680C6922F010021A62C8
:1033480099691A6A21F4704122F0A00241EA043115
:1033580042EA001299611A6210BD70477047022351
:1033680010B580F839300368196A41F211120A4021
:10337800044642B9196A40F244420A401AB91A6826
:1033880022F001021A602046FFF7E8FF002084F8C7
:10339800390084F8380010BD022380F839300368FA
:1033A8001A6842F001021A60012380F839300020BF
:1033B8007047022380F839300368196A41F2111204
:1033C8000A4042B9196A40F244420A401AB91A68D6
:1033D80022F001021A60012380F83930002070477A
:1033E8000368DA6842F00102DA601A6842F0010202
:1033F8001A60002070470368DA6822F00102DA6078
:10340800196A41F211120A4042B9196A40F244425B
:103418000A401AB91A6822F001021A60002070479F
:1034280010B5044690F83900C0B2022813461CD0E3
:1034380094F83900C0B2012804D101B9AAB902220E
:1034480084F83920E069094AC263094A826422681B
:103458002C32FEF76EFE2368DA6842F48072DA6076
:103468001A6842F001021A60002010BDB93F000836
:103478009B4100080368DA6822F48072DA60196AEE
:1034880041F211120A4042B9196A40F244420A4014
:103498001AB91A6822F001021A60012380F839303B
:1034A8000020704770477047022310B580F8393004
:1034B8000368196A41F211120A40044642B9196AAE
:1034C80040F244420A401AB91A6822F001021A600E
:1034D8002046FFF7E8FF002084F8390084F8380018
:1034E80010BD70477047022310B580F83930036863
:1034F800196A41F211120A40044642B9196A40F2A7
:1035080044420A401AB91A6822F001021A60204699
:10351800FFF7E8FF002084F8390084F8380010BD70
:1035280070477047022310B580F839300368196A6C
:1035380041F211120A40044642B9196A40F2444263
:103548000A401AB91A6822F001021A602046FFF7E9
:10355800E8FF002084F8390084F8380010BD70476F
:103568007047022310B580F839300368196A41F2B0
:1035780011120A40044642B9196A40F244420A400C
:103588001AB91A6822F001021A602046FFF7E8FF0C
:10359800002084F8390084F8380010BD03681A6ADE
:1035A80022F001021A621A6A42F001021A621A6AC9
:1035B80022F010021A621A6A42F010021A62064ACF
:1035C800934203D002F58062934203D15A6C42F4CD
:1035D80000425A64002070470000014003681A6ADC
:1035E80022F001021A621A6A1A621A6A22F010029A
:1035F8001A621A6A1A62124A934203D002F580626A
:1036080093420DD1196A41F211120A4042B9196A5E
:1036180040F244420A401AB95A6C22F400425A64F1
:10362800196A41F211120A4042B9196A40F2444239
:103638000A401AB91A6822F001021A60002070477D
:10364800000001400368DA6842F00202DA60DA68D2
:1036580042F00402DA601A6A22F001021A621A6A57
:1036680042F001021A621A6A22F010021A621A6AF9
:1036780042F010021A62064A934203D002F58062B1
:10368800934203D15A6C42F400425A6400207047B6
:10369800000001400368DA6822F00202DA60DA68A2
:1036A80022F00402DA601A6A22F001021A621A6A27
:1036B8001A621A6A22F010021A621A6A1A62124A06
:1036C800934203D002F5806293420DD1196A41F208
:1036D80011120A4042B9196A40F244420A401AB922
:1036E8005A6C22F400425A64196A41F211120A40D3
:1036F80042B9196A40F244420A401AB91A6822F0DB
:1037080001021A60002070470000014070477047AE
:10371800022310B580F839300368196A41F2111292
:103728000A40044642B9196A40F244420A401AB9AA
:103738001A6822F001021A602046FFF7E8FF00200D
:1037480084F8390084F8380010BD036851B10429A1
:1037580010D01A6A22F001021A621A6A42F00102B3
:103768001A6207E01A6A22F001021A621A6A42F023
:10377800010206E01A6A22F010021A621A6A42F07E
:1037880010021A621A6842F001021A60002070479B
:10379800036841B104290AD01A6A22F001021A62A8
:1037A8001A6A1A6203E01A6A22F0010202E01A6A2F
:1037B80022F010021A621A6A1A62196A41F2111288
:1037C8000A4042B9196A40F244420A401AB91A68D2
:1037D80022F001021A6000207047036851B10429E1
:1037E80014D11A6A22F010021A621A6A42F0100200
:1037F8001A621FE01A6A22F001021A621A6A42F07B
:1038080001021A62DA6842F0020216E01A6A22F02D
:1038180001021A621A6A42F001021A621A6A22F056
:1038280010021A621A6A42F010021A62DA6842F04A
:103838000202DA60DA6842F00402DA601A6842F0DA
:1038480001021A600020704703681A6A41B922F021
:1038580001021A621A6A1A62DA6822F0020219E090
:10386800042905D122F010021A621A6A1A620EE0BF
:1038780022F001021A621A6A1A621A6A22F0100207
:103888001A621A6A1A62DA6822F00202DA60DA68E0
:1038980022F00402DA60196A41F211120A4042B9B0
:1038A800196A40F244420A401AB91A6822F0010221
:1038B8001A60012380F83930002070472DE9F04163
:1038C800044690F83900BDF81850C0B202280E46D8
:1038D8001F4600F0818094F83930012B06D102B1DF
:1038E8000FB9002D74D1022384F83930042E1ED06C
:1038F800182E39D0002E6ED1206A384B2168C36348
:10390800374B343183642B46FEF713FC2368DA689F
:1039180042F40072DA601A6842F001021A601A6A08
:1039280022F001021A621A6A42F001021AE0606A81
:103938002A4B2168C3632A4B3A46836438312B46A5
:10394800FEF7F7FB2368DA6842F48062DA601A68E7
:1039580042F001021A601A6A22F010021A621A6A08
:1039680042F010021A6236E0206ADFF870801C4EBE
:103978002168C0F83C8034312B468664FEF7D9FBB9
:10398800606A2168C0F83C803A462B468664383124
:10399800FEF7CFFB23681A6842F001021A601A6A20
:1039A80022F001021A621A6A42F001021A621A6AC5
:1039B80022F010021A621A6A42F010021A62DA68D9
:1039C80042F40072DA60DA6842F48062DA6002E097
:1039D8000120BDE8F0810020BDE8F081CD3F00085E
:1039E8009B41000803681A6A41B922F001021A6271
:1039F8001A6A1A62DA6822F4007219E0042905D1F9
:103A080022F010021A621A6A1A620EE022F001020B
:103A18001A621A6A1A621A6A22F010021A621A6A7A
:103A28001A62DA6822F40072DA60DA6822F48062D4
:103A3800DA60196A41F211120A4042B9196A40F271
:103A480044420A401AB91A6822F001021A60012396
:103A580080F8393000207047F8B5044690F83900EE
:103A6800069DC0B202280F461646194644D094F85F
:103A78003900C0B2012805D10BB9002D3CD1022371
:103A880084F83930B6F5006F22681CD00BD8B6F52B
:103A9800007F13D0B6F5806F12D0B6F5807F21D1A4
:103AA800E069164B16E0B6F5005F0ED0B6F5804F0C
:103AB8000ED0B6F5805F15D1E06A02E0206A00E01A
:103AC800606A0F4B06E0A06AFBE7206B0D4B01E034
:103AD800606B0D4BC3630D4B83642B0A4C3201336F
:103AE800FEF727FB23683D439D64DA681643DE60D2
:103AF800012384F839300020F8BD00BFB93F000821
:103B080009400008675B0008894100089B410008DC
:103B1800B1F5006F38B505460C461AD00AD8B1F58C
:103B2800007F12D0B1F5806F11D0B1F5807F17D129
:103B3800C06913E0B1F5005F0DD0B1F5804F0CD02E
:103B4800B1F5805F0CD1C06A08E0006A06E0406AFF
:103B580004E0806A02E0006B00E0406BFEF716FBB1
:103B68002B68DA6822EA0404DC60002038BD2DE9FD
:103B78007841044690F83900069DC0B202281646DE
:103B880088461A4645D094F83900C0B2012805D1B4
:103B98000BB9002D3DD1022384F83930B6F5006FFA
:103BA80021681CD00BD8B6F5007F13D0B6F5806F0E
:103BB80012D0B6F5807F21D1E069174B16E0B6F533
:103BC800005F0ED0B6F5804F0ED0B6F5805F15D1E8
:103BD800E06A02E0206A00E0606A104B06E0A06A32
:103BE800FBE7206B0E4B01E0606B0E4BC3630E4B83
:103BF80083642B0A4C310133FEF79BFA236845EAAC
:103C080008059D64DA681643DE60012384F83930BC
:103C18000020BDE8788100BFB93F0008CD3F00080B
:103C2800675B0008894100089B410008B1F5006FF7
:103C380038B505460C461AD00AD8B1F5007F12D01F
:103C4800B1F5806F11D0B1F5807F17D1C06913E04D
:103C5800B1F5005F0DD0B1F5804F0CD0B1F5805FA4
:103C68000CD1C06A08E0006A06E0406A04E0806A95
:103C780002E0006B00E0406BFEF788FA2B68DA6818
:103C880022EA0404DC60002038BD90F83830012BAB
:103C98004FF0020309D080F83930036859610123D5
:103CA80080F83930002380F838301846704790F88B
:103CB8003830012B70B54FF0020351D080F83930FD
:103CC8004B680124A34280F838400BD103688C6804
:103CD8009E68CD6826F47F4625430C69354345EA3E
:103CE80004249C600C2A35D8DFE802F00734343409
:103CF800123434341E34343429000A6803681AB183
:103D08009A6942F0800209E09A6922F0800205E08F
:103D18000A68036822B19A6942F400429A6119E07C
:103D28009A6922F40042F9E70A6803681AB1DA6965
:103D380042F080020DE0DA6922F0800209E00A68A8
:103D480003681AB1DA6942F4004202E0DA6922F43F
:103D58000042DA61012380F83930002380F83830D6
:103D6800184670BD90F83830012B30B54FF002037B
:103D780000F0B08080F839300368012280F83820DC
:103D88009A6822F47F4222F077029A600A68402AF1
:103D980077D018D8102A00F08B8008D8002A40F075
:103DA80093809A6822F0700242F007028BE0202A82
:103DB80000F08480302A40F087809A6822F07002F0
:103DC80042F037027FE0702A35D01BD8502A41D004
:103DD800602A79D11A6A4C68CD6822F010021A62FA
:103DE80099691A6A21F4704122F0A00242EA041289
:103DF80041EA053199611A629A6822F0700242F02C
:103E0800670260E0B2F5805F11D0B2F5005F5BD168
:103E18009D684C688A6825F47F452243CC682A430C
:103E280042EA04229A609A6842F480424BE09A6817
:103E380022F0070247E09D684C688A6825F47F45B0
:103E48002243CC682A4342EA04229A609A6842F0E4
:103E5800770238E01A6A4C68CD68196A21F00101C6
:103E68001962996922F00A0221F0F001224341EA1D
:103E7800051199611A629A6822F0700242F057029D
:103E880021E01A6A4C68CD68196A21F001011962AB
:103E9800996922F00A0221F0F001224341EA051152
:103EA80099611A629A6822F0700242F047020AE0A9
:103EB8009A6822F0700242F0170204E09A6822F031
:103EC800700242F027029A60012380F839300023FB
:103ED80080F83830184630BD03685A6822F08002EE
:103EE800114359600020704738B590F83830012BDD
:103EF80004464FF0020315D0012580F8385080F8A9
:103F08003930FFF7D9F92368DA6822F04002DA601D
:103F1800DA68002022F48042DA6084F8395084F8A4
:103F2800380038BD184638BD38B590F83830012B00
:103F380004464FF0020315D0012580F8385080F868
:103F48003930FFF7B9F92368DA6842F04002DA60DD
:103F5800DA68002022F48042DA6084F8395084F864
:103F6800380038BD184638BD90F83830012B1CD0C1
:103F78000C2914D8DFE801F0071313130A131313DD
:103F88000D131313100003685B6B09E003689B6B48
:103F980006E00368DB6B03E003681B6C00E00023AA
:103FA800002280F838201846704702207047704772
:103FB80008B5806B012380F83930FDF7B5FD08BDE1
:103FC8007047704710B5846B226A0123904284F8C9
:103FD80039300DD0636A984208BF022308D0A36A1B
:103FE800984208BF042303D0E36A984201D108230A
:103FF80023762046FFF7E5FF0023237610BD7047A0
:1040080010B5846B226A0123904284F839300DD0B0
:10401800636A984208BF022308D0A36A984208BF7F
:10402800042303D0E36A984201D10823237620466B
:10403800FFF7E5FF0023237610BD704703681A6970
:10404800910710B5044614D5DA68920711D56FF0B8
:1040580002021A619B6901229B07027602D0FFF7D0
:10406800B0FF04E0FFF7ACFF2046FFF7C8FF0023CE
:10407800237623681A69500716D5DA68510713D5CD
:104088006FF004021A619B69022213F4407F2276C2
:10409800204602D0FFF795FF04E0FFF791FF204686
:1040A800FFF7ADFF0023237623681A69120715D599
:1040B800DA68100712D56FF008021A61DB6904226A
:1040C80099072276204602D0FFF77BFF04E0FFF72E
:1040D80077FF2046FFF793FF0023237623681A69AA
:1040E800D20616D5DA68D00613D56FF010021A6119
:1040F800DB69082213F4407F2276204602D0FFF7BE
:1041080060FF04E0FFF75CFF2046FFF778FF00231D
:10411800237623681A69D10708D5DA68D20705D546
:104128006FF001021A612046FDF7FEFC23681A6948
:10413800100608D5DA68110605D56FF080021A61F5
:10414800204601F014FD23681A69520608D5DA687A
:10415800500605D56FF040021A612046FFF76DFF43
:1041680023681A6991060AD5DA68920607D56FF0AE
:10417800200220461A61BDE8104001F0EFBC10BDD6
:1041880008B5806B012380F83930FFF756FF08BD6A
:10419800704708B5806B012380F83930FFF7F8FFC6
:1041A80008BD90F83900704790F83900704790F8CA
:1041B8003900704790F83900704790F83900704717
:1041C80090F8390070472F4A0368904212D0B0F136
:1041D800804F0FD0A2F57C4290420BD002F580624E
:1041E800904207D002F58062904203D002F57842EF
:1041F800904218D14A6823F070031343214A904231
:1042080037D0B0F1804F34D01F4A904231D002F5F8
:10421800806290422DD002F58062904229D002F54A
:104228007842904225D0194A904222D002F5806205
:1042380090421ED002F5806290421AD0A2F59832C0
:10424800904216D002F58062904212D002F5806248
:1042580090420ED003608B68C3620B688362094B7F
:1042680098420BD003F58063984207D0012343613D
:104278007047CA6823F440731343EBE70B69036381
:10428800F4E700BF00000140000400400040014086
:1042980010B50446A0B190F8393003F0FF021BB9FD
:1042A80080F83820FFF759F8022384F8393020685D
:1042B800211DFFF788FF012384F83930002010BD45
:1042C800012010BD10B50446A0B190F8393003F0B4
:1042D800FF021BB980F83820FFF7E4F8022384F8BE
:1042E80039302068211DFFF76EFF012384F839302B
:1042F800002010BD012010BD10B50446A0B190F8F3
:10430800393003F0FF021BB980F83820FFF7E9F8CD
:10431800022384F839302068211DFFF754FF012358
:1043280084F83930002010BD012010BD10B50446B6
:10433800A0B190F8393003F0FF021BB980F838209B
:10434800FFF7EEF8022384F839302068211DFFF7C3
:104358003AFF012384F83930002010BD012010BD38
:1043680038B50D460446E0B190F8393003F0FF0245
:104378001BB980F83820FFF7F2F8022384F83930A7
:104388002068211DFFF71FFF23681A6822F0080222
:104398001A601A6815431D60012384F8393000201B
:1043A80038BD012038BDF8B50C460546002842D076
:1043B80090F8393003F0FF021BB980F83820FFF776
:1043C800A5F92946022351F8040B85F8393083688A
:1043D80023F007038360FFF7F6FE2B6821689F68C8
:1043E8009A692069E669D3F820C00F4322F4407225
:1043F800A16922F0030242EA01220001A16840EA11
:104408000626E0680A43216A304322F47C4222F0FF
:10441800FC0240EA01311143626960689F602CF038
:10442800AA0C4CEA0212024399611A62012385F828
:1044380039300020F8BD0120F8BD70B5046A1B4E64
:1044480024F0010404628469056AB04224F003047C
:104458001AD0B0F1804F17D0A6F57C46B04213D0E1
:1044680006F58066B0420FD006F58066B0420BD0E4
:1044780006F57846B04207D006F57056B04203D02C
:10448800A6F59436B0420DD122431B0122F0F0026A
:10449800DBB225F00A0501F00A011A4329438261BB
:1044A800016270BD44F00102EFE700BF0000014067
:1044B800F8B590F83830012B04460D464FF002004D
:1044C8007ED0012384F8383084F8390072B906C9DF
:1044D800EB682068FFF7B1FF23689A6922F00C02A5
:1044E8009A619969AA680A439A6163E0042A95E87F
:1044F800410023688968ED681FD11A6A22F010020A
:104508001A629F691A6A27F4407747EA06262D033C
:10451800000122F0A00226F47046ADB200F0A0001F
:10452800104335439D6118629A6922F440629A618A
:104538009A6942EA012199613CE0082A1A6A1BD16A
:1045480022F480721A62DF691A6A27F003073E4371
:104558002D01000222F4206226F0F006EDB200F4EC
:10456800206010433543DD611862DA6922F00C02DD
:10457800DA61DA6911431CE022F480521A62DF69B9
:104588001A6A27F4407747EA06262D03000322F427
:10459800204226F47046ADB200F420401043354363
:1045A800DD611862DA6922F44062DA61DA6942EAA6
:1045B8000121D9610123002084F8393084F83800BA
:1045C800F8BD036A23F010030362026A436830B53A
:1045D80085690C6825F4E64545EA04258C6822F0CF
:1045E800200242EA04120E4CA04209D004F580646D
:1045F800A04205D043604B6885618363026230BD89
:10460800CC6822F0800242EA04124C6923F4406329
:1046180043EA84038C6922F0400243EA8403E9E711
:104628000000014038B590F83830012B04464FF0AF
:10463800020024D0012384F8383084F839001D465C
:104648000C2A17D8DFE802F0071616160B161616EE
:104658000F16161613002068FEF7AAFD0AE0206858
:10466800FFF7AFFF06E02068FEF7CEFD02E0206806
:10467800FEF7FAFD002084F8395084F8380038BD78
:1046880038B590F83830012B04460D464FF002003B
:1046980058D0012384F8383084F839000C2A4BD8D4
:1046A800DFE802F0074A4A4A174A4A4A294A4A4A68
:1046B80039002068FEF77CFD23689A6942F00802F9
:1046C8009A619A6922F004029A6199692A690A43EF
:1046D8000FE02068FFF775FF236829699A6942F49B
:1046E80000629A619A6922F480629A619A6942EA40
:1046F80001229A6120E02068FEF786FD2368DA69C6
:1047080042F00802DA61DA6922F00402DA61D96952
:104718002A690A430FE02068FEF7A6FD2368296985
:10472800DA6942F40062DA61DA6922F48062DA61F5
:10473800DA6942EA0122DA610123002084F839307B
:1047480084F8380038BD70B59A4288B005460C46E2
:104758001E466ED090F83830012B4FF0020069D019
:10476800012385F838300B6885F8390001934B68C8
:1047780002938B680393CB6804930B6906934B6988
:10478800079332B1042A08D1286801A9FFF719FF55
:1047980003E0286801A9FEF70BFD46B3042E41D1BA
:1047A8002B68A269186AE669216A20F0100018626D
:1047B8009C69186A24F4407444EA06240903120127
:1047C80024F4704489B220F0A00002F0A002024351
:1047D800214399611A629A6922F440629A619A683F
:1047E80022F070029A609A6842F0600211E004F1C7
:1047F80018010EC92868FFF720FE2B689A6922F075
:104808000C029A619A6822F070029A609A6842F0E3
:1048180050029A609A6822F007029A609A6842F0F9
:1048280006029A600123002085F8393085F838009F
:1048380000E0012008B070BD10B50123046A8B4068
:1048480024EA03030362036A8A401343036210BD28
:1048580010B5044601220068FFF7EEFF2368084AF6
:10486800934203D002F58062934203D15A6C42F41A
:1048780000425A641A6842F001021A60002010BD12
:104888000000014010B5044600220068FFF7D4FF7D
:104898002368124A934203D002F5806293420DD1F5
:1048A800196A41F211120A4042B9196A40F24442A7
:1048B8000A401AB95A6C22F400425A64196A41F241
:1048C80011120A4042B9196A40F244420A401AB920
:1048D8001A6822F001021A60002010BD0000014091
:1048E80010B504460C291CD8DFE801F0071B1B1B78
:1048F8000C1B1B1B111B1B1B16000368DA6842F0FC
:1049080002020DE00368DA6842F0040208E0036876
:10491800DA6842F0080203E00368DA6842F010023D
:10492800DA6001222068FFF787FF2368084A93426C
:1049380003D002F58062934203D15A6C42F40042DC
:104948005A641A6842F001021A60002010BD00BFC4
:104958000000014010B504460C291CD8DFE801F01E
:10496800071B1B1B0C1B1B1B111B1B1B16000368A7
:10497800DA6822F002020DE00368DA6822F0040225
:1049880008E00368DA6822F0080203E00368DA68DE
:1049980022F01002DA6000222068FFF74DFF23683A
:1049A800124A934203D002F5806293420DD1196AEC
:1049B80041F211120A4042B9196A40F244420A40CF
:1049C8001AB95A6C22F400425A64196A41F2111257
:1049D8000A4042B9196A40F244420A401AB91A68B0
:1049E80022F001021A60002010BD00BF0000014043
:1049F80038B5044690F83900C0B202280D46114671
:104A080065D094F83900C0B2012805D10AB9002B45
:104A18005DD1022284F839200C2D40D8DFE805F05A
:104A2800073F3F3F153F3F3F233F3F3F3100206A4D
:104A3800274AC263274A826422683432FDF779FB29
:104A48002368DA6842F4007228E0606A204AC26388
:104A5800204A826422683832FDF76BFB2368DA68E3
:104A680042F480621AE0A06A194AC263194A826451
:104A780022683C32FDF75DFB2368DA6842F4006285
:104A88000CE0E06A124AC263124A82642268403229
:104A9800FDF74FFB2368DA6842F48052DA6001229E
:104AA80020682946FFF7C8FE23680B4A934209D0BD
:104AB80002F58062934205D01A6842F001021A603A
:104AC800002038BD5A6C42F400425A64F4E738BDFD
:104AD800094000089B4100080000014010B5044649
:104AE8000C291CD8DFE801F0071B1B1B0C1B1B1B28
:104AF800111B1B1B16000368DA6822F400720DE014
:104B08000368DA6822F4806208E00368DA6822F44D
:104B1800006203E00368DA6822F48052DA60002257
:104B28002068FFF789FE2368134A934203D002F5F1
:104B3800806293420DD1196A41F211120A4042B9BA
:104B4800196A40F244420A401AB95A6C22F40042E7
:104B58005A64196A41F211120A4042B9196A40F2BC
:104B680044420A401AB91A6822F001021A60012365
:104B780084F83930002010BD0000014010B504460B
:104B880001220068FFF758FE2368084A934203D0C1
:104B980002F58062934203D15A6C42F400425A648F
:104BA8001A6842F001021A60002010BD000001409E
:104BB80010B5044600220068FFF73EFE2368144A39
:104BC800934203D002F5806293420DD1196A41F2F3
:104BD80011120A4042B9196A40F244420A401AB90D
:104BE8005A6C22F400425A64196A41F211120A40BE
:104BF80042B9196A40F244420A401AB91A6822F0C6
:104C080001021A60012384F83930002010BD00BF6A
:104C18000000014010B504460C291CD8DFE801F05B
:104C2800071B1B1B0C1B1B1B111B1B1B16000368E4
:104C3800DA6842F002020DE00368DA6842F0040222
:104C480008E00368DA6842F0080203E00368DA68FB
:104C580042F01002DA6001222068FFF7EDFD2368B8
:104C6800084A934203D002F58062934203D15A6CFA
:104C780042F400425A641A6842F001021A600020A5
:104C880010BD00BF0000014010B504460C291CD817
:104C9800DFE801F0071B1B1B0C1B1B1B111B1B1B3D
:104CA80016000368DA6822F002020DE00368DA6889
:104CB80022F0040208E00368DA6822F0080203E040
:104CC8000368DA6822F01002DA6000222068FFF731
:104CD800B3FD2368124A934203D002F580629342DF
:104CE8000DD1196A41F211120A4042B9196A40F20B
:104CF80044420A401AB95A6C22F400425A64196AAA
:104D080041F211120A4042B9196A40F244420A407B
:104D18001AB91A6822F001021A60002010BD00BFFB
:104D28000000014038B5044690F83900C0B20228A6
:104D38000D46114665D094F83900C0B2012805D156
:104D48000AB9002B5DD1022284F839200C2D40D8F5
:104D5800DFE805F0073F3F3F153F3F3F233F3F3F19
:104D68003100206A274AC263274A826422683432A3
:104D7800FDF7DFF92368DA6842F4007228E0606A18
:104D8800204AC263204A826422683832FDF7D1F98A
:104D98002368DA6842F480621AE0A06A194AC2639A
:104DA800194A826422683C32FDF7C3F92368DA683D
:104DB80042F400620CE0E06A124AC263124A82645A
:104DC80022684032FDF7B5F92368DA6842F4805268
:104DD800DA60012220682946FFF72EFD23680B4A76
:104DE800934209D002F58062934205D01A6842F0D6
:104DF80001021A60002038BD5A6C42F400425A641D
:104E0800F4E738BD094000089B4100080000014054
:104E180010B504460C291CD8DFE801F0071B1B1B42
:104E28000C1B1B1B111B1B1B16000368DA6822F4E2
:104E380000720DE00368DA6822F4806208E0036813
:104E4800DA6822F4006203E00368DA6822F4805228
:104E5800DA6000222068FFF7EFFC2368134A9342C8
:104E680003D002F5806293420DD1196A41F2111202
:104E78000A4042B9196A40F244420A401AB95A6CC7
:104E880022F400425A64196A41F211120A4042B9E6
:104E9800196A40F244420A401AB91A6822F001021B
:104EA8001A60012384F83930002010BD0000014049
:104EB80010B5044601220068FFF7BEFC23681A6893
:104EC80042F001021A60002010BD10B5044600220D
:104ED8000068FFF7B1FC2368196A41F211120A4011
:104EE80042B9196A40F244420A401AB91A6822F0D3
:104EF80001021A60002010BD10B504460C291CD808
:104F0800DFE801F0071B1B1B0C1B1B1B111B1B1BCA
:104F180016000368DA6842F002020DE00368DA68F6
:104F280042F0040208E00368DA6842F0080203E08D
:104F38000368DA6842F01002DA6020680122FFF79D
:104F48007BFC23681A6842F001021A60002010BD39
:104F580010B504460C291CD8DFE801F0071B1B1B01
:104F68000C1B1B1B111B1B1B16000368DA6822F0A5
:104F780002020DE00368DA6822F0040208E0036820
:104F8800DA6822F0080203E00368DA6822F0100207
:104F9800DA6000222068FFF74FFC2368196A41F2A3
:104FA80011120A4042B9196A40F244420A401AB939
:104FB8001A6822F001021A60002010BD38B50446B4
:104FC80090F83900C0B202280D4658D094F839003C
:104FD800C0B2012805D10AB9002B50D1022184F8AA
:104FE80039100C2D40D8DFE805F0073F3F3F153F4B
:104FF8003F3F233F3F3F3100206A2149C163214998
:10500800816421683431FDF794F82368DA6842F442
:10501800007228E0606A1A49C1631A4981642168EC
:105028003831FDF786F82368DA6842F480621AE0BE
:10503800A06A1349C1631349816421683C31FDF7B3
:1050480078F82368DA6842F400620CE0E06A0C49F8
:10505800C1630C49816421684031FDF76AF823680F
:10506800DA6842F48052DA60206801222946FFF7A4
:10507800E3FB23681A6842F001021A60002038BD79
:10508800CD3F00089B41000810B504460C291CD8E8
:10509800DFE801F0071B1B1B0C1B1B1B111B1B1B39
:1050A80016000368DA6822F400720DE00368DA6813
:1050B80022F4806208E00368DA6822F4006203E000
:1050C8000368DA6822F48052DA6000222068FFF769
:1050D800B3FB2368196A41F211120A4042B9196AEE
:1050E80040F244420A401AB91A6822F001021A60D2
:1050F800012384F83930002010BD00BF10B5042307
:10510800046A8B4024EA03030362036A8A40134358
:10511800036210BD704770B50E4688B0044600287B
:1051280046D0022380F83930FFF7F4FF2068211DAC
:10513800FFF749F820683168B3680322FFF77DF963
:105148002068836923F00C038361826973681343C1
:105158008361436843F080034360836823F07003EE
:105168008360836843F040038360836823F0070308
:105178008360836843F00403836070230193F368BA
:10518800002501A9029305950695079504950395B1
:10519800FFF717FA23685A6822F070025A605A68B3
:1051A80042F050025A60012384F83930284600E062
:1051B800012008B070BD7047022310B580F839305F
:1051C8000368196A41F211120A40044642B9196A81
:1051D80040F244420A401AB91A6822F001021A60E1
:1051E8002046FFF7E8FF002084F8390084F83800EB
:1051F80010BD10B50446002100680122FFF71CFB12
:1052080023681A6842F001021A60002010BD0021CC
:1052180010B504460A460068FFF70EFB2368196AB2
:1052280041F211120A4042B9196A40F244420A4056
:105238001AB91A6822F001021A60002010BD10B5D0
:1052480004460068C26842F00202C26000210122DE
:10525800FFF7F2FA23681A6842F001021A60002088
:1052680010BD002110B504460A460068FFF7E4FAAD
:105278002368DA6822F00202DA60196A41F2111230
:105288000A4042B9196A40F244420A401AB91A68F7
:1052980022F001021A60002010BD70B5044690F893
:1052A8003900C0B202280E46154623D094F83900BA
:1052B800C0B2012804D101B9E2B9022384F8393017
:1052C800206800210122FFF7B7FA206A0A4B2168FB
:1052D800C3630A4B3246836434312B46FCF729FFFB
:1052E8002368DA6842F40072DA601A6842F0010250
:1052F8001A60002070BD00BFCD3F00089B41000828
:10530800002110B504460A460068FFF795FA23689D
:10531800DA6822F40072DA60196A41F211120A405E
:1053280042B9196A40F244420A401AB91A6822F08E
:1053380001021A60002010BD10B50446042200685E
:10534800FFF7DCFE23685A6C42F400425A641A687C
:1053580042F001021A60002010BD10B50446002278
:105368000068FFF7CBFE2368196A41F211120A4060
:1053780042B9196A40F244420A401AB95A6C22F4F6
:1053880000425A64196A41F211120A4042B9196A74
:1053980040F244420A401AB91A6822F001021A601F
:1053A800002010BD10B5044600680C2918D8DFE8A5
:1053B80001F0071717170B1717170F1717171300F1
:1053C800C26842F002020AE0C26842F0040206E043
:1053D800C26842F0080202E0C26842F01002C260ED
:1053E800C26842F08002C2600422FFF787FE236889
:1053F8005A6C42F400425A641A6842F001021A6078
:10540800002010BD10B504460C291CD8DFE801F0B7
:10541800071B1B1B0C1B1B1B111B1B1B16000368EC
:10542800DA6822F002020DE00368DA6822F004026A
:1054380008E00368DA6822F0080203E00368DA6823
:1054480022F01002DA6000222068FFF757FE236876
:10545800196A40F244420A401AB9DA6822F0800216
:10546800DA60196A41F211120A4042B9196A40F227
:1054780044420A401AB95A6C22F400425A64196A22
:1054880041F211120A4042B9196A40F244420A40F4
:105498001AB91A6822F001021A60002010BD38B546
:1054A800044690F83900C0B202280D4611465CD077
:1054B80094F83900C0B2012805D10AB9002B54D19B
:1054C800022284F839200C2D40D8DFE805F0073F88
:1054D8003F3F153F3F3F233F3F3F3100206A234A6C
:1054E800C263234A826422683432FCF722FE2368AE
:1054F800DA6842F4007228E0606A1C4AC2631C4AF7
:10550800826422683832FCF714FE2368DA6842F4B1
:1055180080621AE0A06A154AC263154A826422684A
:105528003C32FCF706FE2368DA6842F400620CE0BD
:10553800E06A0E4AC2630E4A826422684032FCF76F
:10554800F8FD2368DA6842F48052DA6020680422A1
:105558002946FFF7D3FD23685A6C42F400425A6487
:105568001A6842F001021A60002038BD094000089C
:105578009B41000810B504460C291CD8DFE801F04F
:10558800071B1B1B0C1B1B1B111B1B1B160003687B
:10559800DA6822F400720DE00368DA6822F48062A7
:1055A80008E00368DA6822F4006203E00368DA6856
:1055B80022F48052DA6000222068FFF79FFD2368FA
:1055C800196A41F211120A4042B9196A40F244427A
:1055D8000A401AB95A6C22F400425A64196A41F214
:1055E80011120A4042B9196A40F244420A401AB9F3
:1055F8001A6822F001021A60012384F83930002069
:1056080010BD10B5044604220068FFF777FD236833
:105618005A6C42F400425A641A6842F001021A6055
:10562800002010BD10B5044600220068FFF766FD93
:105638002368196A41F211120A4042B9196A40F204
:1056480044420A401AB95A6C22F400425A64196A50
:1056580041F211120A4042B9196A40F244420A4022
:105668001AB91A6822F001021A60002010BD10B59C
:10567800044600680C2918D8DFE801F00717171747
:105688000B1717170F1717171300C26842F00202FB
:105698000AE0C26842F0040206E0C26842F008026A
:1056A80002E0C26842F01002C260C26842F08002A2
:1056B800C2600422FFF722FD23685A6C42F40042BC
:1056C8005A641A6842F001021A60002010BD10B531
:1056D80004460C291CD8DFE801F0071B1B1B0C1B18
:1056E8001B1B111B1B1B16000368DA6822F0020241
:1056F8000DE00368DA6822F0040208E00368DA685B
:1057080022F0080203E00368DA6822F01002DA6087
:1057180000222068FFF7F2FC2368196A40F244422D
:105728000A401AB9DA6822F08002DA60196A41F28E
:1057380011120A4042B9196A40F244420A401AB9A1
:105748005A6C22F400425A64196A41F211120A4052
:1057580042B9196A40F244420A401AB91A6822F05A
:1057680001021A60002010BD38B5044690F83900CF
:10577800C0B202280D4611465CD094F83900C0B278
:10578800012805D10AB9002B54D1022284F8392006
:105798000C2D40D8DFE805F0073F3F3F153F3F3F5E
:1057A800233F3F3F3100206A234AC263234A826471
:1057B80022683432FCF7BDFC2368DA6842F40072D0
:1057C80028E0606A1C4AC2631C4A82642268383234
:1057D800FCF7AFFC2368DA6842F480621AE0A06A3A
:1057E800154AC263154A826422683C32FCF7A1FC60
:1057F8002368DA6842F400620CE0E06A0E4AC26389
:105808000E4A826422684032FCF793FC2368DA6807
:1058180042F48052DA60206804222946FFF76EFCC1
:1058280023685A6C42F400425A641A6842F0010232
:105838001A60002038BD00BF094000089B410008DD
:1058480010B504460C291CD8DFE801F0071B1B1B08
:105858000C1B1B1B111B1B1B16000368DA6822F4A8
:1058680000720DE00368DA6822F4806208E00368D9
:10587800DA6822F4006203E00368DA6822F48052EE
:10588800DA6000222068FFF739FC2368196A41F2C0
:1058980011120A4042B9196A40F244420A401AB940
:1058A8005A6C22F400425A64196A41F211120A40F1
:1058B80042B9196A40F244420A401AB91A6822F0F9
:1058C80001021A60012384F83930002010BD10B598
:1058D800044604220068FFF711FC23685A6C42F45E
:1058E80000425A64002010BD10B50446002200682A
:1058F800FFF704FC2368196A41F211120A4042B901
:10590800196A40F244420A401AB95A6C22F4004219
:105918005A64196A41F211120A4042B9196A40F2EE
:1059280044420A401AB91A6822F001021A6000209B
:1059380010BD10B504460068C26842F00202C26099
:10594800C26842F00402C2600422FFF7D7FB236852
:105958005A6C42F400425A64002010BD10B5044647
:105968000068C26822F00202C260C26822F0040223
:10597800C2600022FFF7C2FB2368196A41F21112C4
:105988000A4042B9196A40F244420A401AB95A6CAC
:1059980022F400425A64196A41F211120A4042B9CB
:1059A800196A40F244420A401AB91A6822F0010200
:1059B8001A60002010BD90F83830012B10B51DD0AA
:1059C800012380F8383031F03003036806D19C6831
:1059D80024F070049C609C6821439960596841F0E8
:1059E80001015960596821F00401596059680A4356
:1059F8005A60002380F83830184610BD022010BDC8
:105A080090F83830012B10B521D0012380F83830B8
:105A180031F03003036806D19C6824F070049C6060
:105A28009C6821439960596841F00101596059689F
:105A380021F00401596059680A435A60DA6842F053
:105A48002002DA60002380F83830184610BD0220A2
:105A580010BD90F83830012B10B526D0012380F8FE
:105A6800383031F03003036806D19C6824F07004A4
:105A78009C609C6821439960596841F00101596014
:105A8800596821F00401596059680A435A60084965
:105A9800026BD16307499164DA6842F40052DA6014
:105AA800002380F83830184610BD022010BD00BF12
:105AB800675B00089B41000890F83830012B10B54F
:105AC8004FF0020318D080F8393003685A6822F082
